{
  "_format": "hh-sol-artifact-1",
  "contractName": "ChainlinkProofOfReserveFeed",
  "sourceName": "contracts/ChainlinkProofOfReserveFeed.sol",
  "abi": [
    {
      "inputs": [
        {
          "internalType": "address",
          "name": "_aggregator",
          "type": "address"
        }
      ],
      "stateMutability": "nonpayable",
      "type": "constructor"
    },
    {
      "inputs": [],
      "name": "aggregator",
      "outputs": [
        {
          "internalType": "contract AggregatorV3Interface",
          "name": "",
          "type": "address"
        }
      ],
      "stateMutability": "view",
      "type": "function"
    },
    {
      "inputs": [],
      "name": "getReserve",
      "outputs": [
        {
          "internalType": "int256",
          "name": "",
          "type": "int256"
        }
      ],
      "stateMutability": "view",
      "type": "function"
    }
  ],
  "bytecode": "0x608060405234801561001057600080fd5b50604051610479380380610479833981810160405281019061003291906100db565b806000806101000a81548173ffffffffffffffffffffffffffffffffffffffff021916908373ffffffffffffffffffffffffffffffffffffffff16021790555050610108565b600080fd5b600073ffffffffffffffffffffffffffffffffffffffff82169050919050565b60006100a88261007d565b9050919050565b6100b88161009d565b81146100c357600080fd5b50565b6000815190506100d5816100af565b92915050565b6000602082840312156100f1576100f0610078565b5b60006100ff848285016100c6565b91505092915050565b610362806101176000396000f3fe608060405234801561001057600080fd5b50600436106100365760003560e01c8063245a7bfc1461003b57806359bf5d3914610059575b600080fd5b610043610077565b60405161005091906101b9565b60405180910390f35b61006161009b565b60405161006e91906101ed565b60405180910390f35b60008054906101000a900473ffffffffffffffffffffffffffffffffffffffff1681565b60008060008054906101000a900473ffffffffffffffffffffffffffffffffffffffff1673ffffffffffffffffffffffffffffffffffffffff1663feaf968c6040518163ffffffff1660e01b815260040160a060405180830381865afa158015610109573d6000803e3d6000fd5b505050506040513d601f19601f8201168201806040525081019061012d91906102b1565b5050509150508091505090565b600073ffffffffffffffffffffffffffffffffffffffff82169050919050565b6000819050919050565b600061017f61017a6101758461013a565b61015a565b61013a565b9050919050565b600061019182610164565b9050919050565b60006101a382610186565b9050919050565b6101b381610198565b82525050565b60006020820190506101ce60008301846101aa565b92915050565b6000819050919050565b6101e7816101d4565b82525050565b600060208201905061020260008301846101de565b92915050565b600080fd5b600069ffffffffffffffffffff82169050919050565b61022c8161020d565b811461023757600080fd5b50565b60008151905061024981610223565b92915050565b610258816101d4565b811461026357600080fd5b50565b6000815190506102758161024f565b92915050565b6000819050919050565b61028e8161027b565b811461029957600080fd5b50565b6000815190506102ab81610285565b92915050565b600080600080600060a086880312156102cd576102cc610208565b5b60006102db8882890161023a565b95505060206102ec88828901610266565b94505060406102fd8882890161029c565b935050606061030e8882890161029c565b925050608061031f8882890161023a565b915050929550929590935056fea26469706673582212204e1580d3335d38a8760c300d3d8e346986a075f0663f7df924da45ce65461f7464736f6c63430008140033",
  "linkReferences": {},
  "deployedLinkReferences": {}
}