{
  "_format": "hh-sol-artifact-1",
  "contractName": "MockBtcReserveFeed",
  "sourceName": "contracts/MockBtcReserveFeed.sol",
  "abi": [
    {
      "inputs": [],
      "name": "btcBacking",
      "outputs": [
        {
          "internalType": "uint256",
          "name": "",
          "type": "uint256"
        }
      ],
      "stateMutability": "view",
      "type": "function"
    },
    {
      "inputs": [],
      "name": "latestAnswer",
      "outputs": [
        {
          "internalType": "uint256",
          "name": "",
          "type": "uint256"
        }
      ],
      "stateMutability": "view",
      "type": "function"
    },
    {
      "inputs": [
        {
          "internalType": "uint256",
          "name": "satoshis",
          "type": "uint256"
        }
      ],
      "name": "setBacking",
      "outputs": [],
      "stateMutability": "nonpayable",
      "type": "function"
    }
  ],
  "bytecode": "0x608060405234801561001057600080fd5b5061017f806100206000396000f3fe608060405234801561001057600080fd5b50600436106100415760003560e01c80631442775a1461004657806350d25bcd1461006257806399adfc2814610080575b600080fd5b610060600480360381019061005b91906100f2565b61009e565b005b61006a6100a8565b604051610077919061012e565b60405180910390f35b6100886100b1565b604051610095919061012e565b60405180910390f35b8060008190555050565b60008054905090565b60005481565b600080fd5b6000819050919050565b6100cf816100bc565b81146100da57600080fd5b50565b6000813590506100ec816100c6565b92915050565b600060208284031215610108576101076100b7565b5b6000610116848285016100dd565b91505092915050565b610128816100bc565b82525050565b6000602082019050610143600083018461011f565b9291505056fea26469706673582212200d52b812b38ad17659dd01a978b1b2ec229538059ab6c6d6a31c54d466b8191864736f6c63430008140033",
  "linkReferences": {},
  "deployedLinkReferences": {}
}